:100000000C94A3050C94D4050C94D4050C94D4053D
:100010000C94D4050C94D4050C94D4050C94D405FC
:100020000C94D4050C94D4050C94D4050C94D405EC
:100030000C94D4050C94D4050C94D4050C94D405DC
:100040000C94D4050C9429100C94D4050C94D4056C
:100050000C94D4050C94D4050C94D4050C949110F4
:100060000C94D4050C943B070C9411070C94D40504
:100070000C94D4050C94D4050C94D4050C94D4059C
:100080000C94FB0F0C94D4050C94D4050C94D4055B
:100090000C94D4050C94D4050C94D4050C948A0AC1
:1000A0000C94D4050C94D4050C94CD0F0C94D40569
:1000B0000C94D4050C94D4050C94D4050C949F0F87
:1000C0000C94D4050C94D4050C94D4050C94D4054C
:1000D0000C94D4050C94D4050C94D4050C94D4053C
:1000E0000C94D405C50CC80CB70CBB0CBF0CFF0C92
:1000F000CC0CD00CD60CDA0CDE0CE40CE80CEC0CBE
:10010000FF0CF20CF60CFA0C084AD73B3BCE016E02
:1001100084BCBFFDC12F3D6C74319ABD56833DDA5E
:100120003D00C77F11BED9E4BB4C3E916BAAAABE6D
:10013000000000803F000C94B70C0C9414060C9443
:1001400002060C94FA0C0C94FF070C9428060C94ED
:10015000E80C0C94A3070C94BB0C0C94D6050C94DF
:10016000CC0C0C9436060C94E40C0C94F60C0C9409
:10017000BF0C0C94C50C0C94D00C0C94FF0C0C947C
:10018000D60C0C94DE0C0C9485180C94B4060C94CC
:10019000B3070C94CF070C94C7070C9405060C9476
:1001A000EC0C0C94C80C0C94A4070C94DA0C0C9472
:1001B0006D060C94F20C00002100240027002A0098
:1001C0002D003000330001010000040107010A0185
:1001D00001B202FFFF0190040923A135016A020662
:1001E0000001600800000000000000000060044002
:1001F00000000001620200000060040040000003F3
:100200007B034CCD6C03AB0336567600680402CBFF
:1002100047A202180400058BC1010C040000000075
:10022000037F060CC92C979797038903264666001F
:100230006C022000024004000000000244040000A0
:10024000000002480400000000024C04000000000E
:100250000250040000000002540400000000025894
:100260000400000000025C040000000002BC040066
:1002700000000001EC0400004000037F060CC92CC4
:100280009797970402030D355D040904872D353DCA
:1002900000A3010000000001078601FE074105F1EF
:1002A00020283038077E01300746019A074704F1BD
:1002B000283038076C04F12830380216020001FBA0
:1002C00000003E000B0036000100020003000000A9
:1002D000650054FFEF0000FA80000B12820001005D
:1002E000020000000000000000000000000000000C
:1002F000280000FFFF4581FFFFFA720000000000A8
:100300000003E80000000100017FFFFFFE80010004
:100310001B000000000000000000000000000000C2
:100320003E03304000000002CAE3093E8000002086
:1003300000000000000000400000006000000041DC
:10034000FF000000000B2A0000165500002182FD6E
:10035000872650FD800000001F000000058000007F
:100360000000000001000000020000000300004047
:100370000000000000046F0002653200005EC04013
:10038000000000000000000000000000000000FB72
:100390008C6F5DFD5D08D9007C733B006C12CC3224
:1003A00000139D3200D0D632000800400001F4FF57
:1003B000E68079020000000000D0D600002710FB84
:1003C00000000040000000000000000000000000ED
:1003D000000001000000000000010001000000001A
:1003E00000FA36FFBC308E0005FBF0FFD95BC8FF7A
:1003F000D09ABE000010A9FFF41EB200CEBBF700D9
:1004000000000100000004000200020200000CFFD6
:10041000C280000001800000CF800040000000008A
:1004200000000100000000000006000000001400B1
:1004300000000000000000000000000000000000BC
:1004400000000000000000000000000000000000AC
:10045000000000000000000000000000000000009C
:10046000000000033F68B6793528BCC67ED16C8099
:10047000000000400000000000B26A000000000020
:100480000000000000000000003FF000000030000D
:10049000000000000000000000000000000000005C
:1004A000000000000000000000000000000000004C
:1004B00000254D002F706D000005AE000C02D0002D
:1004C00000000000650054FFEF0000000000000085
:1004D0000001000044000000000C000000010000CA
:1004E0000000000065000000540000FFEF00000065
:1004F00000000000000000000000000000000040BC
:1005000000000000000000000000000000000040AB
:1005100000000000000000000000000000000000DB
:1005200000000100000002000000000000000000C8
:1005300000000000000000000000000000000000BB
:1005400000000000000000000000000000000000AB
:100550001B00000000000000000000000000000080
:10056000000000000000000000000000000000008B
:10057000000000000000000000000040000000003B
:100580001B00000000000000000000000000000050
:10059000000000000000000000000000000000005B
:1005A000000000000000000000000000000000004B
:1005B000000000000000000000000000000000D863
:1005C000DCBAA2F1DEB2B8B4A88191F74A907F916B
:1005D0006AF3F9DBA8F9B0BAA080F2CE81F3C2F1D8
:1005E000C1F2C3F3CCA2B280F1C6D880BAA7DFDFD4
:1005F000DFF2A7C3CBC5B6F087A2942448703C9520
:10060000406834589B78A2F183922D557DD8B1B4BF
:10061000B8A1D09180F270F370F27C80A8F101B0A3
:100620009887D943D886C988BAA1F20EB89780F1C5
:10063000A9DFDFDFAADFDFDFF2AAC5CDC7A90CC9BA
:100640002C97979797F1A989264666B0B4BA80ACE3
:10065000DEF2CAF1B28C02A9B69800890E161EB855
:10066000A9B4992C547CB08AA896365676F1B9AFC5
:10067000B4B083C0B8A89711B18F98B9AFF024086F
:1006800044106418F1A329557DAF83B593AFF000F2
:100690002850F1A3869F61A6DADEDFD9FAA38696F9
:1006A000DB31A6D9F8DFBAA68FC2C5C7B28CC1B8F4
:1006B000A2DFDFDFA3DFDFDFD8D8F1B8A8B286B4CE
:1006C000980D355DB8AA98B0872D353DB2B6BAAF52
:1006D0008C96198F9FA70E161EB49AB8AA872C5411
:1006E0007CB9A3DEDFDFA3B180F2C4CDC9F1B8A924
:1006F000B499830D355D89B9A32D557DB593A30EAE
:10070000161EA92C547CB8B4B0F19783A81184A507
:100710000998A383F0DA240844106418D8F1A529B5
:10072000557DA58595021A2E3A565A4048F9F3A3ED
:10073000D9F8F098832408441064189782A8F1111E
:10074000F098A2240844106418DAF3DED883A59444
:1007500001D9A302F1A2C3C5C7D8F18492A24DDA90
:100760002AD84869D92AD86855DA32D85071D9328E
:10077000D8705DDA3AD85879D93AD87893A34DDA57
:100780002AD84869D92AD86855DA32D85071D9326E
:10079000D8705DDA3AD85879D93AD878A88A9AF0D8
:1007A0002850789EF38818F19F1D98A8D908D8C8BA
:1007B0009F129EF315A8DA1210D8F1AFC8978734AC
:1007C000B5B994A421F3D922D8F22DF3D92AD8F2BD
:1007D00035F3D932D881A4606061D961D86C686979
:1007E000D969D8747071D971D8B1A384193D5DA34A
:1007F000831A3E5E931030811011B8B0AF8F94F21F
:10080000DA3ED8B49AA88729DAF8D8879A35DAF880
:10081000D8879A3DDAF8D8B1B9A49885022E56A5A2
:1008200081000C14A397B08AF12DD928D84DD9484E
:10083000D86DD968D8B1840DDA0ED8A32983DA2C03
:100840000ED8A3844983DA2C4C0ED8B8B0A88A9A63
:10085000F520AADADFD8A840AAD0DADED8A860AAA4
:10086000DAD0DFD8F19786A8319B069907AB972895
:10087000889BF00C201440B8B0B4A88C9CF00428DD
:1008800051791D301438B282ABD0982C5050787802
:100890009BF11AB0F08A9CA82951798B2951798A49
:1008A0002470598B2058718A4469388B3940688A82
:1008B0006448318B304960A588200971584468111B
:1008C0003964493019F1AC002C547CF08CA8042810
:1008D0005078F1889726A85998AC8C02264666F085
:1008E000899CA8295179247059446938644831A9F0
:1008F0008809205970AB11384069A8193148608CBB
:10090000A83C415C207C00F187981986A86E767E11
:10091000A999882D557D9EB9A38A228A6E8A568A06
:100920005E9FB183062646660E2E4E6E9DB8AD00C4
:100930002C547CF2B18CB499B9A32D557D8191AC26
:1009400038AD3AB58391AC2DD928D84DD948D86D5A
:10095000D968D88C9DAE29D904AED851D904AED867
:1009600079D904D881F39DAD008DAE1981ADD9013F
:10097000D8F2AEDA26D88E912983A7D9ADADADAD28
:10098000F32AD8D8F1B0AC89913E5E76F3AC2E2E26
:10099000F1B18C5A9CAC2C2828289CAC3018A89813
:1009A0008128343C9724A728343C9C24F2B089AC9D
:1009B000912C4C6C8A9B2DD9D8D851D9D8D879D9BB
:1009C000D8D8F19E88A331DAD8D8912DD928D84D1E
:1009D000D948D86DD968D8B18393353D8025DAD808
:1009E000D88569DAD8D8B49381A328343CF3AB8B8B
:1009F000F8A391B609B4D9ABDEFAB0879CB9A3DDF0
:100A0000F1A3A3A3A395F1A3A3A39DF1A3A3A3A3E0
:100A1000F2A3B49080F2A3A3A3A3A3A3A3A3A3A32D
:100A2000B2A3A3A3A3A3A3B087B599F1A3A3A3984B
:100A3000F1A3A3A3A397A3A3A3A3F39BA3A3DCB9AD
:100A4000A7F1262626D8D8FF4649464F206F76655F
:100A500072666C6F77210000002200250028002BB1
:100A6000002E003100340002010000050108010BD6
:100A70000105050505070508080808020202020A23
:100A80000A08080404040401010101010101010331
:100A900003030303030303040707070C0C0C0C0CEC
:100AA0000C0C0C0202020206060606060606060BDF
:100AB0000B0B0B0B0B0B0B01021020200808102056
:100AC00040102040800201020108040201010204DA
:100AD0000810204080804020100804020180040299
:100AE00001804020100804020108040201010204F0
:100AF0000810204080010204081020408000000AF5
:100B00000B02090C0D0E0807030401000000000091
:100B100000000000000000000000000000000000D5
:100B20000000000000000000001211100000000092
:100B300000000000000000000000000000000000B5
:100B400000000000851811241FBECFEFD1E2DEBFE8
:100B5000CDBF00E00CBF24E0A6E4B2E001C01D92CE
:100B6000A63CB207E1F712E0A0E0B2E0E2EBFDE361
:100B700000E00BBF02C007900D92A634B107D9F771
:100B800015E0C3EAD5E000E006C021970109802FF7
:100B9000FE010E944019C23AD10780E00807A9F778
:100BA0000E94DB100C94D71E0C940000CF92DF92B1
:100BB000EF92FF920F931F93CF93DF936C017A0113
:100BC0008B01C0E0D0E0CE15DF0589F0D8016D9132
:100BD0008D01D601ED91FC910190F081E02DC601CF
:100BE0001995892B11F47E0102C02196ECCFC70123
:100BF000DF91CF911F910F91FF90EF90DF90CF90F9
:100C00000895089580E090E00895FC01538D448D8F
:100C1000252F30E0842F90E0821B930B541710F0A7
:100C2000CF96089501970895FC01918D828D9817B4
:100C300061F0828DDF01A80FB11D5D968C91928DC0
:100C40009F5F9F73928F90E008958FEF9FEF0895BD
:100C5000FC01918D828D981731F0828DE80FF11D86
:100C6000858D90E008958FEF9FEF0895FC01918DA1
:100C7000228D892F90E0805C9F4F821B91098F739A
:100C8000992708958EEE92E00E94360621E0892B86
:100C900009F420E0822F0895FC01848DDF01A80F64
:100CA000B11DA35ABF4F2C91848D90E001968F7394
:100CB0009927848FA689B7892C93A089B1898C91B3
:100CC00080648C93938D848D981306C00288F38979
:100CD000E02D80818F7D80830895EF92FF920F93A6
:100CE0001F93CF93DF93EC0181E0888F9B8D8C8DD8
:100CF000981305C0E889F989808185FD24C0F62E06
:100D00000B8D10E00F5F1F4F0F731127E02E8C8D9E
:100D1000E8120CC00FB607FCFACFE889F989808188
:100D200085FFF5CFCE010E944C06F1CF8B8DFE01E1
:100D3000E80FF11DE35AFF4FF0820B8FEA89FB8920
:100D40008081806207C0EE89FF896083E889F98924
:100D500080818064808381E090E0DF91CF911F915A
:100D60000F91FF90EF900895CF93DF93EC01888D62
:100D70008823C9F0EA89FB89808185FD05C0A8899F
:100D8000B9898C9186FD0FC00FB607FCF5CF808125
:100D900085FFF2CFA889B9898C9185FFEDCFCE016F
:100DA0000E944C06E7CFDF91CF91089580E090E05C
:100DB000892B21F00E944206811125C080E090E03D
:100DC000892B41F080E090E0892B21F00E94000007
:100DD00081111CC080E090E0892B41F080E090E020
:100DE000892B21F00E940000811113C080E090E067
:100DF000892BA1F080E090E0892B81F00E94000017
:100E000081110AC008950E940000D8CF0E940000FE
:100E1000E1CF0E940000EACF0C94000008950E94E8
:100E20009A1E1F920F920FB60F9211240BB60F92BB
:100E30002F933F934F935F936F937F938F939F93E2
:100E4000AF93BF93EF93FF938EEE92E00E944C0618
:100E5000FF91EF91BF91AF919F918F917F916F9192
:100E60005F914F913F912F910F900BBE0F900FBE4E
:100E70000F901F9018951F920F920FB60F9211248A
:100E80000BB60F922F938F939F93EF93FF93E09165
:100E9000FE02F091FF028081E0910403F0910503CE
:100EA00082FD12C09081809107038F5F8F73209124
:100EB0000803821751F0E0910703F0E0E251FD4F83
:100EC000958F8093070301C08081FF91EF919F91DF
:100ED0008F912F910F900BBE0F900FBE0F901F9010
:100EE000189585ED8093BC008091BC0084FDFCCFFB
:100EF0001092DD02089540917004262F30E0240FF7
:100F0000311D21323105DCF42091DD022430C9F499
:100F1000FC0180E090E0861758F430917004219134
:100F2000DC01A25BBB4FA30FB11D2C930196F3CF45
:100F300080917004680F6093700480E0089581E0F0
:100F4000089582E008950895E091B6028091B50277
:100F5000E81730F4F0E0EB56FD4F808190E0089503
:100F60008FEF9FEF08959091B6028091B502981788
:100F700050F4E92FF0E0EB56FD4F208130E09F5F09
:100F80009093B60202C02FEF3FEFC9010895809100
:100F9000B50290E02091B602821B91090895CF928C
:100FA000DF92EF92FF920F931F93CF93DF937C0119
:100FB000262F972F8A018091DE02882391F0C62F79
:100FC000D72F6E01C40ED51ECC15DD0571F06991C9
:100FD000D701ED91FC910190F081E02DC7011995A9
:100FE000F3CF642F822F0E947B07C801DF91CF913E
:100FF0001F910F91FF90EF90DF90CF900895CF93C6
:10100000DF931F92CDB7DEB769832091DE022223E2
:10101000D1F02091E102203240F021E030E0FC01EB
:101020003383228380E090E015C08091DF02E82FB7
:10103000F0E0EB56FB4F998190838F5F8093DF0246
:101040008093E10205C061E0CE0101960E947B071A
:1010500081E090E00F90DF91CF9108952091E1021F
:101060009091E002213208F04AC08091DD028111A6
:10107000FCCF32E03093DD0231E03093DC023FEF11
:101080003093DB021092DA022093D902A5E9B4E092
:1010900049EB52E0FA013E2F341B321718F43D9110
:1010A0003193F9CF1092B8022091B802990F922B88
:1010B0009093B8029091B702913061F41092B70208
:1010C0009091B8029093BB009091BC0093FDF8CF33
:1010D00095EC01C095EE9093BC009091DD029230AA
:1010E000E1F39091DB029F3F79F08091DB02803247
:1010F00041F08091DB02803331F084E005C081E073
:1011000003C082E001C083E01092DF021092E1028E
:101110001092DE020895EF92FF920F931F93CF93E8
:10112000DF931F921F92CDB7DEB7142F91E09093FB
:10113000DE028093E0021092DF021092E10282EE62
:1011400092E029833A830E94FF072981022FE22E31
:101150003A81F32E8E2D801B811740F4F7016191A7
:101160007F0182EE92E00E94FF07F4CF0E942E08DA
:1011700091E0811190E0892F0F900F90DF91CF9136
:101180001F910F91FF90EF9008950F931F93CF93AE
:10119000DF93CBE3D4E008EE13E02CE334E041E04E
:1011A0006AE388810E94FF0D8981DF91CF911F91B1
:1011B0000F91089521E042E06AE680913B040C948F
:1011C000650F0F931F93662351F0462F9C0108EE85
:1011D00013E064E780913B040E94FF0D02C0FC0114
:1011E00010821F910F9108950F931F93CF93DF9358
:1011F000CBE3D4E008EE13E02CE334E042E062E716
:1012000088810E94FF0D898190E0982F88272A818C
:10121000822BDF91CF911F910F910895EF92FF9252
:101220000F931F93CF93DF931F92CDB7DEB77A0151
:1012300089019E012F5F3F4F41E00E94FF0D8823EF
:1012400039F029812E7730E035952795F7012083F5
:101250000F90DF91CF911F910F91FF90EF90089524
:10126000009769F0FC0101900020E9F73197AF0188
:10127000481B590BBC018EEE92E00C94D60580E021
:1012800090E008958F929F92AF92BF920F931F9319
:10129000CF93DF93CDB7DEB7A1970FB6F894DEBF3B
:1012A0000FBECDBF19A2423008F44AE08E010F5D97
:1012B0001F4F842E912CA12CB12CA50194010E94CA
:1012C000B51EE62FB901CA0101501109EA3014F424
:1012D000E05D01C0E95CD801EC93232B242B252B86
:1012E00061F7C8010E943009A1960FB6F894DEBFDD
:1012F0000FBECDBFDF91CF911F910F91BF90AF90E7
:101300009F908F9008954F925F926F927F928F92ED
:101310009F92AF92BF92CF92DF92EF92FF926B01BA
:101320007C01B42E9B01AC010E946A1C882319F039
:101330008AE392E027C026013701E89477F82FEF7F
:101340003FEF4FE75FE7C301B2010E946A1C8111C2
:101350000DC02FEF3FEF4FE75FE7C301B2010E94DF
:10136000271A18161CF48EE392E00CC02FEF3FEF03
:101370004FE75FE4C701B6010E94A61B181684F46C
:1013800082E492E0FF90EF90DF90CF90BF90AF901B
:101390009F908F907F906F905F904F900C9430094A
:1013A0002FEF3FEF4FE75FECC701B6010E94271A0E
:1013B00087FDE6CF20E030E0A901C701B6010E9419
:1013C000271A87FF11C0E091EE02F091EF02019021
:1013D000F081E02D6DE28EEE92E019954C01F7FA66
:1013E000F094F7F8F09402C0812C912CA12C60E0CD
:1013F00070E080E09FE3AB1441F020E030E040E299
:1014000051E40E942C1AA394F6CF9B01AC01C701B2
:10141000B6010E9449192B013C010E949E1A6B01E2
:101420007C010E94CD1A9B01AC01C301B2010E9454
:1014300048192B013C014AE0C701B6010E9442094C
:101440007C01E80CF91CBB2069F0E091EE02F09100
:10145000EF020190F081E02D6EE28EEE92E01995A0
:10146000E80EF91EDB2CDD2021F120E030E040E227
:1014700051E4C301B2010E94B31B2B013C010E9445
:101480009E1A4B01A12CB12C4AE0C501B4010E9467
:101490004209E80EF91EC501B4010E94CD1A9B0154
:1014A000AC01C301B2010E9448192B013C01DA943E
:1014B000DACFC701FF90EF90DF90CF90BF90AF9051
:1014C0009F908F907F906F905F904F900895CF93F3
:1014D000DF93EA0191E09093DE028093E0021092A4
:1014E000DF021092E10282EE92E00E94FF07698122
:1014F00082EE92E00E94FF07688182EE92E00E94F5
:10150000FF070E942E0891E0811190E0892FDF9162
:10151000CF9108951F920F920FB60F9211240BB620
:101520000F922F933F934F935F936F937F938F937C
:101530009F93AF93BF93EF93FF938091B900887F00
:10154000803609F49CC068F5883209F45BC090F4D9
:10155000803109F454C038F4882309F4F6C0883087
:1015600009F44DC0F6C0883109F44CC0803209F44A
:101570005DC0EFC0803409F468C048F4803309F4DA
:1015800055C0883309F0E5C08093DB02D8C08035B0
:1015900009F44FC0883509F45DC0883409F0D9C01A
:1015A000D6C0883909F4C7C0A8F4883709F467C0E1
:1015B00038F4883609F463C0803709F460C0C9C0C4
:1015C000883809F4B8C0803909F45FC0803809F060
:1015D000C0C05BC0803B09F486C038F4803A09F48F
:1015E00066C0883A09F47FC0B4C0803C09F4A7C043
:1015F000883C09F4A4C0883B09F48AC0AAC0809141
:10160000B80210C09091DA028091D902981770F553
:10161000E091DA0281E08E0F8093DA02F0E0E75485
:10162000FD4F80818093BB0085EC86C08093DB02F8
:101630008EC0E091DA0281E08E0F8093DA02809111
:10164000BB00F0E0E754FD4F80839091DA02809177
:10165000D9026EC0E091DA0281E08E0F8093DA0247
:101660008091BB00F0E0E754FD4F80838091DC0265
:1016700081116DC081E08093B70284EA61C083E08C
:101680008093DD0210929404CFCF80919404803235
:1016900008F051C0E091940481E08E0F809394048F
:1016A0008091BB00F0E0EC58FB4F8083BDCF85EC10
:1016B0008093BC001092DD0280919404803230F45B
:1016C000E0919404F0E0EC58FB4F10826091940498
:1016D00070E0E0917204F091730484E794E019954E
:1016E0001092940436C084E08093DD02109271045D
:1016F00010927004E0916E04F0916F04199580913E
:101700007004811105C081E08093700410924E0432
:10171000E091710481E08E0F80937104F0E0E25B50
:10172000FB4F80818093BB00909171048091700485
:10173000981708F479CF85E88093BC000AC085EC3F
:101740008093BC001092DD0204C01092DB020E9464
:101750007107FF91EF91BF91AF919F918F917F9111
:101760006F915F914F913F912F910F900BBE0F9012
:101770000FBE0F901F901895CF93DF931F92CDB798
:10178000DEB749839E012F5F3F4F41E00E948B08E7
:101790000F90DF91CF910895482F6EE680913B0422
:1017A0000C94BC0B2F923F924F925F926F927F925C
:1017B0008F929F92AF92BF92CF92DF92EF92FF9261
:1017C0000F931F93CF93DF933C015B01342ED22FF5
:1017D000202E4F716DE680913B040E94BC0B8D2F33
:1017E0000E94CC0B80E190E00E94841C6C010023DD
:1017F00039F080E190E00E94841CC82F492E02C07D
:10180000C0E0412CE12CF12CEA14FB0408F06EC07E
:10181000C7014096A816B90618F45A2C5E1802C0E3
:1018200080E1582E852D90E020E031E02D1B31091C
:101830002817390714F45D2E5194F301EE0DFF1DA6
:10184000222059F09C2FAC2FB42D8A2F891B85158F
:1018500030F484918D933196F8CFCE2F4F2E2C2FCC
:10186000342D452D6FE680913B040E948B08852C1A
:10187000912CC114D10429F1432D4F716DE6809153
:101880003B040E94BC0B8D2F0E94CC0B08EE13E092
:101890009601452D6FE680913B040E94FF0DA40147
:1018A000B6018C2F942D0E949F1E892B51F0C601EA
:1018B0000E94191D222021F18C2F942D0E94191DA8
:1018C0001FC0E80CF91CD50DEA14FB0408F09CCFEE
:1018D000D11101C03394432D4F716DE680913B04CB
:1018E0000E94BC0B8D2F0E94CC0B8ECFC6010E9494
:1018F000191D222039F08C2F942D0E94191D02C031
:1019000080E001C081E0DF91CF911F910F91FF90A6
:10191000EF90DF90CF90BF90AF909F908F907F908F
:101920006F905F904F903F902F900895362F90E0EA
:10193000FC01E350F54F4491FC01E954F54F24912B
:10194000FC01EF58F54F9491992309F46BC044239F
:1019500009F455C050E0FA013197E231F10508F081
:101960004EC08827EE58FF4F8F4F0C94401980913E
:1019700080008F7707C0809180008F7D03C08091A9
:101980008000877F809380003AC084B58F7702C043
:1019900084B58F7D84BD33C08091B0008F7703C044
:1019A0008091B0008F7D8093B00029C0809190001D
:1019B0008F7707C0809190008F7D03C08091900049
:1019C000877F809390001BC08091A0008F7707C015
:1019D0008091A0008F7D03C08091A000877F8093BD
:1019E000A0000DC0809120018F7707C08091200159
:1019F0008F7D03C080912001877F80932001E92F94
:101A0000F0E0EE0FFF1FE95AF54FA591B4918FB7A3
:101A1000F894EC91311103C020952E2301C02E2B98
:101A20002C938FBF0895CF92DF92EF92FF920F9386
:101A30001F93CF93DF936C018B017A01EC01C654A5
:101A4000DB4F888187FF04C0FB011182108224C014
:101A50008CE08C9D90018D9D300D11248881A90111
:101A6000480F511D87FD5A9580911B0490E048173F
:101A7000590794F48881A901480F511D87FD5A9593
:101A8000CA01FA01EE0FFF1F8E0F9F1FFC01E557E1
:101A9000FC4F808186FD19C088818F5F88838CE030
:101AA0008C9D90018D9D300D11248881A901480FD6
:101AB000511D87FD5A9580911B0490E048175907E6
:101AC000BCF488818C3044F113C08881280F311D0B
:101AD00087FD3A95F901EE0FFF1F2E0F3F1FF90109
:101AE000E557FC4F808160E08F730E94960CD4CF45
:101AF000F80180819181049680349C4918F480E437
:101B00009CE904C0F801808191810496F7019183DA
:101B100080838FEF888345C0F8014081518188819F
:101B2000B901680F711D87FD7A95CB01FB01EE0F9E
:101B3000FF1F8E0F9F1FFC01E557FC4F8181928193
:101B4000840F951FF701918380838881A901480F35
:101B5000511D87FD5A95CA01FA01EE0FFF1F8E0F26
:101B60009F1FFC01E557FC4F808186FF1AC08881CA
:101B7000280F311D87FD3A95F901EE0FFF1F2E0F3B
:101B80003F1FF901E557FC4F808161E08F73DF91C2
:101B9000CF911F910F91FF90EF90DF90CF900C9419
:101BA000960CDF91CF911F910F91FF90EF90DF90F6
:101BB000CF9008953FB7F8948091B6049091B70400
:101BC000A091B804B091B90426B5A89B05C02F3FD9
:101BD00019F00196A11DB11D3FBFBA2FA92F982F53
:101BE0008827820F911DA11DB11DBC01CD0142E0CE
:101BF000660F771F881F991F4A95D1F708952F9276
:101C00003F924F925F926F927F928F929F92AF928C
:101C1000BF92CF92DF92EF92FF920F931F93CF93D9
:101C2000DF93CDB7DEB727970FB6F894DEBF0FBEB0
:101C3000CDBF8F83962E742F59018FB7F894C09023
:101C4000BE04D090BF04E090C004F090C1048FBFE8
:101C50005F81550F5B83812C312C2224239450E02B
:101C60005D834C832801612C712C871608F0A4C079
:101C70002092DE025F815093E0021092DF02109208
:101C8000E102692D82EE92E07E830E94FF070E94AE
:101C90002E082092DE025F815093E0021092DF0254
:101CA0001092E1027E818091DD028111FCCF2C81B6
:101CB0003D81281931092132310514F020E230E04C
:101CC000213208F020E22092DD022092DC028FEF28
:101CD0008093DB021092DA02820F8093D902209265
:101CE000B8028091B8024B81842B8093B802809116
:101CF000B702813071F41092B7028091B8028093DC
:101D0000BB008091BC0083FDF8CF55EC5093BC0024
:101D100003C085EE8093BC008091DD028130E1F349
:101D20008091DA02821710F42091DA02A9EBB2E076
:101D3000E5E9F2E08E2F45E952E0841B821718F4A2
:101D40008D918193F7CF1092B6022093B5029091B6
:101D5000B5028091B602981749F10115110591F469
:101D6000A501430D511D37FC5A955A83498382EED4
:101D700092E07E830E94B307E981FA8180833394E5
:101D80007E81E5CF2FB7F8948091BE049091BF0477
:101D9000A091C004B091C1042FBF8C199D09AE0958
:101DA000BF0984159505A605B705D0F2872F7132B6
:101DB00008F080E2880E59CF0115110509F12FB7FF
:101DC000F8948091BE049091BF04A091C004B0919A
:101DD000C1042FBF8C199D09AE09BF0920E030E076
:101DE00080179107A207B30758F0272F30E0832D03
:101DF000032C000C990B8217930714F433243A94A4
:101E0000832D27960FB6F894DEBF0FBECDBFDF91AE
:101E1000CF911F910F91FF90EF90DF90CF90BF90E7
:101E2000AF909F908F907F906F905F904F903F907A
:101E30002F900895BF92CF92DF92EF92FF920F936F
:101E40001F93CF93DF931F92CDB7DEB7F82EE62E08
:101E5000C42EB22ED02E08EE13E09E012F5F3F4F0E
:101E600041E00E94FF0D882321F1EC2DF0E0EB19F9
:101E7000F109319621E030E002C0220F331FBA94FD
:101E8000E2F7215031090E2E01C0220F0A94EAF721
:101E90008D2D01C0880FEA95EAF7422F4095998170
:101EA00049232823422B49836E2D8F2D0E94BC0B82
:101EB00001C080E00F90DF91CF911F910F91FF90B3
:101EC000EF90DF90CF90BF900895CF92DF92EF9286
:101ED000FF920F931F93CF93DF931F92CDB7DEB77F
:101EE000F82EE62ED42EC22E08EE13E09E012F5FB0
:101EF0003F4F41E00E94FF0D9981CC2041F041E02D
:101F000050E001C0440FDA94EAF7492B09C021E000
:101F100030E0A90101C0440FDA94EAF74095492363
:101F200049836E2D8F2D0E94BC0B0F90DF91CF91B6
:101F30001F910F91FF90EF90DF90CF9008951F9227
:101F40000F920FB60F9211240BB60F922F933F935F
:101F50004F935F936F937F938F939F93AF93BF93B1
:101F6000EF93FF9348E251E064E271E080E090E09B
:101F70000E94130DFF91EF91BF91AF919F918F91AF
:101F80007F916F915F914F913F912F910F900BBE79
:101F90000F900FBE0F901F9018951F920F920FB6C3
:101FA0000F9211240BB60F922F933F934F935F9391
:101FB0006F937F938F939F93AF93BF93EF93FF9311
:101FC00048EA50E064EA70E083E090E00E94130D7C
:101FD000FF91EF91BF91AF919F918F917F916F9101
:101FE0005F914F913F912F910F900BBE0F900FBEBD
:101FF0000F901F9018951F920F920FB60F921124F9
:102000000BB60F922F933F934F935F936F937F93F2
:102010008F939F93AF93BF93EF93FF9348E950E063
:1020200064E970E082E090E00E94130DFF91EF916F
:10203000BF91AF919F918F917F916F915F914F91E0
:102040003F912F910F900BBE0F900FBE0F901F90DE
:1020500018951F920F920FB60F9211240BB60F9284
:102060002F933F934F935F936F937F938F939F93A0
:10207000AF93BF93EF93FF9348E850E064E870E0BC
:1020800081E090E00E94130DFF91EF91BF91AF911D
:102090009F918F917F916F915F914F913F912F9180
:1020A0000F900BBE0F900FBE0F901F9018958F9240
:1020B0009F92AF92BF92CF92DF92EF92FF926B010D
:1020C0007C010E94DA0D4B015C01C114D104E104D2
:1020D000F104F1F00E94DA0DDC01CB0188199909B5
:1020E000AA09BB09883E9340A105B10570F321E020
:1020F000C21AD108E108F10888EE880E83E0981E24
:10210000A11CB11CC114D104E104F10419F7DDCF05
:10211000FF90EF90DF90CF90BF90AF909F908F9007
:1021200008951F920F920FB60F9211242F933F9391
:102130008F939F93AF93BF938091BE049091BF0400
:10214000A091C004B091C1043091B50423E0230FE5
:102150002D3720F40196A11DB11D05C026E8230FDF
:102160000296A11DB11D2093B5048093BE049093E7
:10217000BF04A093C004B093C1048091B6049091B1
:10218000B704A091B804B091B9040196A11DB11D86
:102190008093B6049093B704A093B804B093B904A5
:1021A000BF91AF919F918F913F912F910F900FBE53
:1021B0000F901F901895CF93DF93CDB7DEB7CE5A0F
:1021C000D1090FB6F894DEBF0FBECDBF789484B5A9
:1021D000826084BD84B5816084BD85B5826085BD23
:1021E00085B5816085BD80916E00816080936E00B1
:1021F00010928100809181008260809381008091A3
:102200008100816080938100809180008160809353
:1022100080008091B10084608093B1008091B00013
:1022200081608093B00080919100826080939100E2
:1022300080919100816080939100809190008160F5
:10224000809390008091A10082608093A100809192
:10225000A10081608093A1008091A00081608093A3
:10226000A000809121018260809321018091210151
:102270008160809321018091200181608093200101
:1022800080917A00846080937A0080917A008260E5
:1022900080937A0080917A00816080937A008091A7
:1022A0007A00806880937A001092C100E091FE026B
:1022B000F091FF0282E08083E091FA02F091FB024C
:1022C0001082E091FC02F091FD028FEC808310926D
:1022D0000603E0910203F091030386E08083E0911E
:1022E0000003F0910103808180618083E09100030D
:1022F000F0910103808188608083E0910003F09178
:102300000103808180688083E0910003F0910103E4
:1023100080818F7D808320910002309101022F3FC8
:102320008FEF380709F473C080911C04803308F0E4
:102330006EC0C9019927FC01E954F54F4491FC0195
:10234000EF58F54F8491882399F090E0880F991FFA
:10235000FC01EA54FE4FA591B491FC01E95AF54FF6
:10236000859194918FB7F894EC91E42BEC938FBF07
:1023700080911C04E82FF0E0AF01440F551FE40FDB
:10238000F51FE557FC4F2F739081907C292B2083FC
:1023900010921D0410921E046CE00E9434199CE0FF
:1023A000899FB001112440E050E09A01260F371FA9
:1023B000F901EE0FFF1F2E0F3F1FF901E557FC4FEC
:1023C000908196FD17C04F5F5F4F4C30510569F704
:1023D000813009F06EC61092800082E08093810007
:1023E0001092850010928400B19A80916F008260F3
:1023F00080936F00E0911C04F0E0CF01880F991FDB
:10240000E80FF91FE557FC4F80818064808301E06D
:1024100023E042E06BE680913B040E941A0F00E04B
:1024200022E044E06BE180913B040E941A0F22E01D
:1024300044E06CE180913B040E941A0F20E046E0EA
:102440006BE680913B040E94650FE9EBFAE0249172
:10245000E3E7FAE084918823C9F090E0880F991FA0
:10246000FC01EA54FE4F45915491FC01E95AF54FA5
:10247000A591B4919FB7F894FA01808120958223A9
:1024800080838C91E22FE823EC939FBF21E047E00B
:102490006BE680913B040E94650F6EE170E080E086
:1024A00090E00E94571020E046E06BE680913B04EC
:1024B0000E94650F40E76DE680913B040E94BC0BD3
:1024C00086E00E94CC0B40E06DE680913B040E94C8
:1024D000BC0B28EE33E04CE354E060E080913B0419
:1024E0000E940E0980903C0428EE33E04CE354E057
:1024F00061E080913B040E940E0990903C0428EE1C
:1025000033E04CE354E062E080913B040E940E090A
:10251000A0903C044FE765E280913B040E94BC0B15
:1025200020E045E06AE680913B040E94650F48E6A2
:1025300065E280913B040E94BC0B21E041E06AE629
:1025400080913B040E94650F64E170E080E090E0C0
:102550000E94571001E020E040E069E877E08FEB4F
:1025600092E00E94D20B882309F4CAC288E090E06E
:102570000E94841CB82E192FE12CF12CF701E15098
:10258000FE4F4491F701E050FE4F24916701F3E0C4
:10259000CF0ED11CF701EF5FFD4FE491EE23D1F197
:1025A000EE2EF12CE330D8F0B7018B2D912FC255D0
:1025B000DF4F2883CE5AD040C355DF4F4883CD5AD2
:1025C000D0400E94B11DB82E192FC355DF4F48814E
:1025D000CD5AD040C255DF4F2881CE5AD040AB2DC6
:1025E000B12F80E090E08E159F0548F4F601E80FCA
:1025F000F91FE150FE4FE491ED930196F4CF00E016
:10260000B7018B2D912F0E94D20BEC0CFD1C811178
:1026100016C010C084E0E80EF11CF601E150FE4F38
:10262000E491E13039F442E368E380913B040E9495
:10263000BC0B05C08B2D912F0E94191D61C290EC1F
:10264000E916F10408F49ACF8B2D912F0E94191DE1
:1026500003E023E042E06BE680913B040E941A0F06
:1026600042E168E380913B040E94BC0B44E069E1D5
:1026700080913B040E94BC0B01E023E045E06AE14D
:1026800080913B040E941A0F03E023E042E06AE1DC
:1026900080913B040E941A0F22E044E06BE180919C
:1026A0003B040E941A0F43E060E780913B040E94C4
:1026B000BC0B40E061E780913B040E94BC0B20E032
:1026C00040E060E080913B040E94650F082D26E009
:1026D00046E060E080913B040E941A0F092D26E03D
:1026E00046E061E080913B040E941A0F0A2D26E02B
:1026F00046E062E080913B040E941A0FE12CF12C2D
:10270000F701E053FE4FE491A1E8B0E0AC0FBD1F2C
:10271000AE0DB11DEC9381E08E0DAFEFEA1AFA0A0F
:10272000B3E0BE1568F7CD57DF4F6881C358D0407E
:1027300070E09B012E5F3F4F90E02817390704F7A8
:1027400000E0CE57DF4F2881C258D040CF57DF4F2F
:102750004881C158D04081E890E08C0F9D1F0396BE
:102760000E94D20B80E0F701E053FE4FE491A1E814
:10277000B0E0AC0FBD1FA80FB11DEC938F5FEFEF62
:10278000EE1AFE0A843078F3CD57DF4F6881C358C4
:10279000D04070E0AB014E5F5F4F282F30E0421712
:1027A00053070CF700E0CE57DF4F2881C258D040C6
:1027B000CF57DF4F4881C158D04081E890E08C0F5F
:1027C0009D1F03960E94D20B0E94DA080E94F40813
:1027D000682FCE0101960E94E10842E06FE18091EE
:1027E0003B040E94BC0B4CE961E280913B040E94D7
:1027F000BC0B40E560E280913B040E94BC0B40E0D2
:1028000062E280913B040E94BC0B0E94DA0821E046
:1028100046E06AE680913B040E94650F21E047E0B4
:102820006AE680913B040E94650F21E043E06AE67E
:1028300080913B040E94650F80E0F701E053FE4F5A
:10284000E491A1E8B0E0AC0FBD1FA80FB11DEC935F
:102850008F5FFFEFEF1AFF0A843078F3CD57DF4F19
:102860006881C358D04070E0AB014E5F5F4F282FA6
:1028700030E0421753070CF700E0CE57DF4F2881B6
:10288000C258D040CF57DF4F4881C158D04081E86F
:1028900090E08C0F9D1F03960E94D20B80E0F70101
:1028A000E053FE4FE491A1E8B0E0AC0FBD1FA80FCC
:1028B000B11DEC938F5F9FEFE91AF90A843078F32A
:1028C000CD57DF4F6881C358D04070E0AB014E5FF9
:1028D0005F4F282F30E0421753070CF700E0CE5728
:1028E000DF4F2881C258D040CF57DF4F4881C158B1
:1028F000D04081E890E08C0F9D1F03960E94D20B80
:1029000080E0F701E053FE4FE491A1E8B0E0AC0FA6
:10291000BD1FA80FB11DEC938F5FAFEFEA1AFA0A43
:10292000843078F3CD57DF4F6881C358D04070E0D2
:10293000AB014E5F5F4F282F30E0421753070CF773
:1029400000E0CE57DF4F2881C258D040CF57DF4F2D
:102950004881C158D04081E890E08C0F9D1F0396BC
:102960000E94D20B0E94F40883309105D8F3682F9F
:10297000CE0101960E94E10880E0F701E053FE4F8E
:10298000E491A1E8B0E0AC0FBD1FA80FB11DEC931E
:102990008F5FBFEFEB1AFB0A843078F3CD57DF4F20
:1029A0003880C358D040832C912CA4014E5F5F4FD8
:1029B000282F30E04217530704F7CE57DF4FB88077
:1029C000C258D040CF57DF4F2880C158D040422D49
:1029D0004F716DE680913B040E94BC0B8B2D0E94D1
:1029E000CC0BC12CD12C612C7724739461E8462E3A
:1029F000512C4C0E5D1EE3E04E0E511CC814D90440
:102A000098F5C60140968816990618F4A32CAC18C0
:102A100002C040E1A42E8A2D90E093012B193109C8
:102A20002817390714F4AB2CA19492012C0D3D1DED
:102A300008EE13E04A2D6FE680913B040E94FF0DE3
:102A4000CA0CD11CBA0CC814D904C0F6B11001C00C
:102A50002394422D4F716DE680913B040E94BC0B84
:102A60008B2D0E94CC0BCACF0E94F40883309105B5
:102A7000D8F3682FCE0101960E94E108F701E053D8
:102A8000FE4F80E09491A1E8B0E0AC0FBD1FA80F0D
:102A9000B11D9C938F5F843010F43196F3CFCD57E6
:102AA000DF4F6881C358D04070E0AB014E5F5F4F8D
:102AB000282F30E04217530784F700E0CE57DF4F4E
:102AC0002881C258D040CF57DF4F4881C158D040ED
:102AD00081E890E08C0F9D1F03960E94D20B20E0AE
:102AE00047E06AE680913B040E94650F8AE290E02D
:102AF00090933E0480933D040E94DA080E94C5082A
:102B000080913B042CED30E0CD56DF4F3983288394
:102B1000C359D040AE014D565F4F63E10E94670A32
:102B200080913B042CE430E0CF56DF4F398328837B
:102B3000C159D040AE014F565F4F65E10E94670A10
:102B400080913B042BEA3FEFCF57DF4F3983288337
:102B5000C158D040AE014F575F4F67E10E94670AEE
:102B600080913B042CEF36E03A832983AE014F5F1E
:102B70005F4F6AE00E94670A21E041E068E38091CC
:102B80003B040E94650F80913D04809392020E9455
:102B9000C5080E94F4080E94C508182F809393026C
:102BA0000E94F4088093940214FD65C2109194026F
:102BB00000919202101728F40E94F4088093940266
:102BC000F5CF602F82E592E00E94E108101B109380
:102BD0009402C0905602D12CDC2CCC248091570258
:102BE000C82AE0905A02F12CFE2CEE2480915B0260
:102BF000E82A00915E0210E0102F002780915F020A
:102C0000082B6091520270E0762F66278091530264
:102C1000682B072E000C880B990B0E94CF1A20E01E
:102C200030E040E858E30E94B31B4B015C01609325
:102C30002B0470932C0480932D0490932E04B601E2
:102C4000DD0C880B990B0E94CF1A20E030E040E8A1
:102C500058E30E94B31B2B013C0160932F04709337
:102C600030048093310490933204B701FF0C880B39
:102C7000990B0E94CF1A20E030E040E858E30E9410
:102C8000B31BCB56DF4F688379838A839B83C559F7
:102C9000D040609333047093340480933504909350
:102CA0003604B801110F880B990B0E94CF1A20E04F
:102CB00030E040E858E30E94B31BC756DF4F6883FB
:102CC00079838A839B83C959D0406093370470937A
:102CD00038048093390490933A049B01AC01C301FA
:102CE000B2010E94B31B6B017C01CB56DF4F2881E0
:102CF00039814A815B81C559D040C501B4010E9428
:102D0000B31B9B01AC01C701B6010E9448199B018E
:102D1000AC010E944919C356DF4F688379838A83C7
:102D20009B83CD59D04060931F04709320048093FF
:102D3000210490932204A3019201C501B4010E94D1
:102D4000B31B6B017C01C756DF4F288139814A8153
:102D50005B81C959D040CB56DF4F688179818A8128
:102D60009B81C559D0400E94B31B9B01AC01C70198
:102D7000B6010E9449199B01AC010E944919CF5527
:102D8000DF4F688379838A839B83C15AD0406093E5
:102D90002304709324048093250490932604A501B2
:102DA0009401C501B4010E94B31B6B017C01A30116
:102DB0009201C301B2010E94B31B9B01AC01C70188
:102DC000B6010E9448196B017C01CB56DF4F288168
:102DD00039814A815B81C559D040CA01B9010E943D
:102DE000B31B9B01AC01C701B6010E9448196B01DE
:102DF0007C01C756DF4F288139814A815B81C959DF
:102E0000D040CA01B9010E94B31B9B01AC01C701AC
:102E1000B6010E9449196B017C01609327047093ED
:102E200028048093290490932A04A5019401C501E4
:102E3000B4010E944919CB55DF4F688379838A8397
:102E40009B83C55AD040A3019201C301B2010E94E5
:102E50004919C755DF4F688379838A839B83C95A91
:102E6000D040A5019401CB55DF4F688179818A81DB
:102E70009B81C55AD0400E94B31B4B015C01A3014A
:102E80009201C755DF4F688179818A819B81C95A38
:102E9000D0400E94B31B9B01AC01C501B4010E944C
:102EA000491920E030E040E85FE30E9448194B01F7
:102EB0005C01CB56DF4F288139814A815B81C5593E
:102EC000D040C755DF4F688179818A819B81C95A7B
:102ED000D0400E94B31B2B013C01C756DF4F288115
:102EE00039814A815B81C959D040CB55DF4F688118
:102EF00079818A819B81C55AD0400E94B31B9B0176
:102F0000AC01C301B2010E944819A50194010E94BD
:102F1000C8196093460270934702809348029093C9
:102F20004902A7019601C701B6010E94B31B6B01BC
:102F30007C01CF55DF4F288139814A815B81C15A9D
:102F4000D040CA01B9010E94B31BA70196010E949B
:102F500049190E94261C9B01AC01C356DF4F6881B2
:102F600079818A819B81CD59D0400E942C1A0E9480
:102F7000F81960934A0270934B0280934C0290932D
:102F80004D02C356DF4F288139814A815B81CD597B
:102F9000D040CA01B9010E94B31BA70196010E944B
:102FA00049190E94261C9B01AC01CF55DF4F688157
:102FB00079818A819B81C15AD0400E942C1A0E943B
:102FC000F81960934E0270934F02809350029093D1
:102FD000510282E392E00E94300920E030E044E3B5
:102FE00053E46091460270914702809148029091AB
:102FF00049020E94B31B2BED3FE049E450E40E94DC
:103000002C1A42E00E94830985E392E00E94300975
:1030100020E030E044E353E460914A0270914B02B7
:1030200080914C0290914D020E94B31B2BED3FE02A
:1030300049E450E40E942C1A42E00E94830985E38F
:1030400092E00E94300920E030E044E353E46091D4
:103050004E0270914F0280915002909151020E9455
:10306000B31B2BED3FE049E450E40E942C1A42E0F0
:103070000E94830908C00E94DA0808E41AE0F801F7
:103080006491611107C087E392E00E9430090E94B9
:10309000D6067FCDE091EE02F091EF020190F08133
:1030A000E02D8EEE92E019950F5F1F4F892B39F7B7
:1030B000EACF823061F410929000809391001092D8
:1030C00095001092940088BB8093710093C983305F
:1030D00069F41092A00082E08093A1001092A500F4
:1030E0001092A40089BB8093720084C9811182C9A7
:1030F0001092200182E0809321011092250110920C
:1031000024018ABB8093730075C91092E502109266
:10311000E40288EE93E0A0E0B0E08093E6029093B2
:10312000E702A093E802B093E90222E132E0309393
:10313000E3022093E2021092F1021092F0028093D7
:10314000F2029093F302A093F402B093F50284E2AA
:1031500092E09093EF028093EE0285EC90E09093E2
:10316000FB028093FA0284EC90E09093FD0280933E
:10317000FC0280EC90E09093FF028093FE0281ECD1
:1031800090E0909301038093000382EC90E0909391
:1031900003038093020386EC90E0909305038093F1
:1031A000040310920703109208031092090310926F
:1031B0000A0388E680933B0480E090E0A0E8BFE348
:1031C00080932B0490932C04A0932D04B0932E0491
:1031D00010922F0410923004109231041092320495
:1031E0001092330410923404109235041092360475
:1031F00010923704109238041092390410923A0455
:1032000010921F04109220041092210410922204A4
:103210001092230410922404109225041092260484
:1032200010922704109228041092290410922A0464
:1032300080911B048033A0F491E0980F90931B04BD
:1032400080931C0490E0FC01EE0FFF1F8E0F9F1F68
:10325000FC01E557FC4F88EB9BE092838183089546
:103260008FEF80931C040895991B79E004C0991F87
:10327000961708F0961B881F7A95C9F780950895D0
:10328000EE0FFF1F881F8BBF0790F691E02D19945A
:103290005058BB27AA270E9460190C946C1B0E94EF
:1032A0005E1B38F00E94651B20F039F49F3F19F433
:1032B00026F40C94341B0EF4E095E7FB0C942E1BC3
:1032C000E92F0E947D1B58F3BA1762077307840722
:1032D000950720F079F4A6F50C949F1B0EF4E09569
:1032E0000B2EBA2FA02D0B01B90190010C01CA01C0
:1032F000A0011124FF27591B99F0593F50F4503E6B
:1033000068F11A16F040A22F232F342F4427585F5C
:10331000F3CF469537952795A795F0405395C9F774
:103320007EF41F16BA0B620B730B840BBAF091502C
:10333000A1F0FF0FBB1F661F771F881FC2F70EC0CB
:10334000BA0F621F731F841F48F48795779567959E
:10335000B795F7959E3F08F0B0CF9395880F08F08A
:103360009927EE0F9795879508950E945E1B60F050
:1033700080E891E009F49EEF0E94651B28F040E888
:1033800051E071F45EEF0CC00C94341B0C949F1B45
:10339000E92FE0780E947D1B40F3092E052AB1F346
:1033A000261737074807590738F00E2E07F8E0258B
:1033B00069F0E025E0640AC0EF6307F8009407FABB
:1033C000DB01B9019D01DC01CA01AD01EF930E944F
:1033D000431A0E946C1B0E94F8195F91552339F023
:1033E0002BED3FE049E450FD49EC0C944919089558
:1033F000DF93DD27B92FBF7740E85FE31616170686
:1034000048075B0718F4D92F0E94AB1B9F938F933B
:103410007F936F930E94661CE8E0F1E00E94371BE7
:103420000E946C1B2F913F914F915F910E94C61B90
:10343000DD2351F09058A2EA2AED3FE049EC5FE32A
:10344000D0785D270E946019DF910C946C1B0E945C
:103450000A1B08F481E008950E94401A0C946C1B2A
:103460000E94651B58F00E945E1B40F029F45F3FEC
:1034700029F00C942E1B51110C94A01B0C94341B9E
:103480000E947D1B68F39923B1F3552391F3951B9B
:10349000550BBB27AA2762177307840738F09F5F75
:1034A0005F4F220F331F441FAA1FA9F335D00E2EE2
:1034B0003AF0E0E832D091505040E695001CCAF74F
:1034C0002BD0FE2F29D0660F771F881FBB1F261712
:1034D00037074807AB07B0E809F0BB0B802DBF01E9
:1034E000FF2793585F4F3AF09E3F510578F00C94B8
:1034F0002E1B0C94A01B5F3FE4F3983ED4F38695FB
:1035000077956795B795F7959F5FC9F7880F911DD8
:103510009695879597F90895E1E0660F771F881FC4
:10352000BB1F621773078407BA0720F0621B730B77
:10353000840BBA0BEE1F88F7E09508950E94851B57
:1035400088F09F5798F0B92F9927B751B0F0E1F064
:10355000660F771F881F991F1AF0BA95C9F714C014
:10356000B13091F00E949F1BB1E008950C949F1B15
:10357000672F782F8827B85F39F0B93FCCF386954D
:1035800077956795B395D9F73EF4909580957095AA
:1035900061957F4F8F4F9F4F0895E89409C097FB27
:1035A0003EF490958095709561957F4F8F4F9F4F1A
:1035B0009923A9F0F92F96E9BB279395F69587955E
:1035C00077956795B795F111F8CFFAF4BB0F11F421
:1035D00060FF1BC06F5F7F4F8F4F9F4F16C08823C8
:1035E00011F096E911C0772321F09EE8872F762FFE
:1035F00005C0662371F096E8862F70E060E02AF03F
:103600009A95660F771F881FDAF7880F969587952A
:1036100097F90895990F0008550FAA0BE0E8FEEFFF
:1036200016161706E807F907C0F012161306E40786
:10363000F50798F0621B730B840B950B39F40A267F
:1036400061F0232B242B252B21F408950A2609F45D
:10365000A140A6958FEF811D811D089597F99F6761
:1036600080E870E060E008959FEF80EC0895DF93BC
:10367000CF931F930F93FF92EF92DF927B018C0108
:10368000689406C0DA2EEF010E94C61BFE01E89482
:10369000A5912591359145915591A6F3EF010E9491
:1036A0006019FE019701A801DA9469F7DF90EF90A5
:1036B000FF900F911F91CF91DF91089500240A94FC
:1036C0001616170618060906089500240A941216FD
:1036D0001306140605060895092E0394000C11F430
:1036E000882352F0BB0F40F4BF2B11F460FF04C0DD
:1036F0006F5F7F4F8F4F9F4F089557FD9058440F36
:10370000551F59F05F3F71F04795880F97FB991F40
:1037100061F09F3F79F087950895121613061406FD
:10372000551FF2CF4695F1DF08C01616170618068A
:10373000991FF1CF86957105610508940895E89465
:10374000BB2766277727CB0197F908950E940A1BAC
:1037500008F48FEF08959B01AC0160E070E080E811
:103760009FE30C942C1A0E94C61B0C946C1B0E94A5
:103770005E1B38F00E94651B20F0952311F00C941D
:103780002E1B0C94341B11240C94A01B0E947D1B37
:1037900070F3959FC1F3950F50E0551F629FF001A4
:1037A000729FBB27F00DB11D639FAA27F00DB11DBD
:1037B000AA1F649F6627B00DA11D661F829F222746
:1037C000B00DA11D621F739FB00DA11D621F839FCD
:1037D000A00D611D221F749F3327A00D611D231FA3
:1037E000849F600D211D822F762F6A2F11249F57F1
:1037F00050409AF0F1F088234AF0EE0FFF1FBB1FF4
:10380000661F771F881F91505040A9F79E3F5105B2
:1038100080F00C942E1B0C94A01B5F3FE4F3983EA9
:10382000D4F3869577956795B795F795E7959F5F5C
:10383000C1F7FE2B880F911D9695879597F90895EE
:1038400019F416F40C94341B0C946F1C0E94851B05
:10385000B8F39923C9F3B6F39F57550B87FF0E941E
:103860007D1C0024A0E640EA90018058569597956B
:1038700028F4805C660F771F881F20F02617370713
:10388000480730F4621B730B840B202931294A2B23
:10389000A69517940794202531254A2758F7660FD7
:1038A000771F881F20F026173707480730F4620B70
:1038B000730B840B200D311D411DA09581F7B901BB
:1038C000842F9158880F9695879508959B01AC0198
:1038D0000C94B31B0E940A1B880B990B08959F3F01
:1038E00031F0915020F4879577956795B795880FBB
:1038F000911D9695879597F9089591505040660FC0
:10390000771F881FD2F70895CF93DF9382309105F8
:1039100010F482E090E0E091C404F091C50420E04E
:1039200030E0C0E0D0E0309711F14081518148177C
:103930005907C0F04817590761F482819381209795
:1039400019F09B838A832BC09093C5048093C40491
:1039500026C02115310519F04217530718F49A01B2
:10396000BE01DF01EF010280F381E02DDCCF2115E4
:10397000310509F1281B390B2430310590F41296DA
:103980008D919C9113976115710521F0FB01938333
:10399000828304C09093C5048093C404FD013296D1
:1039A00044C0FD01E20FF31F81939193225031092E
:1039B0002D933C933AC02091C2043091C304232B31
:1039C00041F420910402309105023093C304209306
:1039D000C20420910202309103022115310541F405
:1039E0002DB73EB74091060250910702241B350BBC
:1039F000E091C204F091C304E217F307A0F42E1B78
:103A00003F0B2817390778F0AC014E5F5F4F241742
:103A1000350748F04E0F5F1F5093C3044093C20414
:103A20008193919302C0E0E0F0E0CF01DF91CF916C
:103A300008950F931F93CF93DF93009709F48CC0E1
:103A4000FC013297138212820091C4041091C504C4
:103A50000115110581F420813181820F931F20917E
:103A6000C2043091C3042817390779F5F093C304D1
:103A7000E093C20471C0D80140E050E0AE17BF0728
:103A800050F412962D913C911397AD0121153105FB
:103A900009F1D901F3CF9D01DA01338322836081DB
:103AA0007181860F971F8217930769F4EC012881B3
:103AB0003981260F371F2E5F3F4F318320838A8144
:103AC0009B8193838283452B29F4F093C504E09373
:103AD000C40442C01396FC93EE931297ED014991F2
:103AE00059919E01240F351FE217F30771F480816D
:103AF0009181840F951F029611969C938E938281DB
:103B0000938113969C938E931297E0E0F0E0D80196
:103B100012968D919C911397009719F0F8018C01E2
:103B2000F6CF8D919C9198012E5F3F4F820F931F8E
:103B30002091C2043091C3042817390769F43097E3
:103B400029F41092C5041092C40402C01382128298
:103B50001093C3040093C204DF91CF911F910F9182
:103B600008956F927F928F929F92AF92BF92CF9261
:103B7000DF92EF92FF920F931F93CF93DF93EC01AD
:103B8000009789F4CB01DF91CF911F910F91FF90A6
:103B9000EF90DF90CF90BF90AF909F908F907F90ED
:103BA0006F900C94841CFC01E60FF71F9C012250BF
:103BB0003109E217F30708F4ACC0D9010D911C914B
:103BC000119706171707B0F00530110508F49FC0CC
:103BD000C80104978617970708F499C00250110985
:103BE000061B170B019311936D937C93CF010E94D9
:103BF000191D8DC05B01A01AB10A4C01800E911EE7
:103C0000A091C404B091C50440E050E0E12CF12C37
:103C1000109709F44AC0A815B905D1F56D907C90AC
:103C20001197630182E0C80ED11CCA14DB0480F135
:103C3000A3014A195B096A0182E0C80ED11C1296E1
:103C4000BC9012971396AC91B5E0CB16D10440F01E
:103C5000B282A38351834083D9016D937C930AC0C0
:103C60000E5F1F4FC301800F911FF9019183808365
:103C7000EB2DFA2FE114F10431F0D7011396FC93E8
:103C8000EE93129744C0F093C504E093C4043FC080
:103C90008D919C9111974817590708F4AC017D014B
:103CA00012960D90BC91A02DB3CF8091C20490913B
:103CB000C30488159905E1F446175707C8F48091A5
:103CC000020290910302009741F48DB79EB7409194
:103CD000060250910702841B950BE817F907C8F4F8
:103CE000F093C304E093C204F901718360830FC0B1
:103CF000CB010E94841C7C01009759F0A801BE01F1
:103D00000E94AC1ECE010E94191DC70104C0CE0145
:103D100002C080E090E0DF91CF911F910F91FF9062
:103D2000EF90DF90CF90BF90AF909F908F907F905B
:103D30006F90089581E090E0F8940C94D71EFB01F9
:103D4000DC0104C08D910190801921F44150504054
:103D5000C8F7881B990B0895FB01DC0102C0019094
:103D60000D9241505040D8F70895A1E21A2EAA1B97
:103D7000BB1BFD010DC0AA1FBB1FEE1FFF1FA2171B
:103D8000B307E407F50720F0A21BB30BE40BF50B18
:103D9000661F771F881F991F1A9469F760957095A1
:103DA000809590959B01AC01BD01CF010895F894D9
:023DB000FFCF43
:103DB20009000000C604800001000000E8030000C2
:103DC2000000FF07CF070206A307C707B307A40730
:103DD200000000006D06D6050506B4063606140678
:103DE200280679707209000D0A006E616E00696E14
:063DF20066006F7666001A
:00000001FF
